:020000040800F2
:10000000101400209D0100085F1100086F10000807
:100010005D1100087F020008091A000800000000B6
:100020000000000000000000000000008311000834
:10003000A302000800000000811100084D13000811
:10004000B7010008B7010008B7010008B7010008B0
:10005000B7010008B7010008B7010008B7010008A0
:10006000B7010008B7010008B7010008B701000890
:10007000B7010008B7010008B7010008B701000880
:10008000B7010008B7010008B7010008B701000870
:10009000B7010008B7010008B7010008B701000860
:1000A000B7010008B7010008B7010008B701000850
:1000B000B7010008B7010008B7010008B701000840
:1000C000B7010008B7010008B7010008B701000830
:1000D000B7010008B7010008B7010008B701000820
:1000E000B7010008B7010008B7010008B701000810
:1000F000B7010008B7010008B7010008B701000800
:10010000B7010008B7010008B7010008B7010008EF
:10011000B7010008B7010008B7010008B7010008DF
:10012000B7010008B7010008B7010008B7010008CF
:10013000B7010008B7010008B7010008B7010008BF
:10014000B7010008B7010008B7010008B7010008AF
:10015000B7010008B7010008B7010008B70100089F
:10016000B7010008B7010008B7010008B70100088F
:10017000B7010008B7010008B7010008000000003F
:10018000B7010008B7010008DFF80CD000F03AF81A
:1001900000480047351B000810140020064880471F
:1001A00006480047FEE7FEE7FEE7FEE7FEE7FEE75C
:1001B000FEE7FEE7FEE7FEE7F51300088901000809
:1001C000D2B201E000F8012B491EFBD27047002299
:1001D000F6E710B513460A4604461946FFF7F0FF46
:1001E000204610BD421C10F8011B0029FBD1801ACB
:1001F0007047034611F8012B00F8012B002AF9D1B2
:1002000018467047064C074D06E0E06840F00103D1
:1002100094E8070098471034AC42F6D3FFF7B8FFD4
:10022000281D0008481D000870B58C1810F8015BE7
:1002300015F0070301D110F8013B2A1106D110F87F
:10024000012B03E010F8016B01F8016B5B1EF9D183
:100250002B0705D40023521E0DD401F8013BFAE709
:1002600010F8013BCB1A921C03E013F8015B01F874
:10027000015B521EF9D5A142D8D3002070BDFEE724
:1002800070B50E46054600241921FFF7A0FF01E0D6
:100290002855641C305DAA28FAD129194870601CC1
:1002A00070BD704731B500F0E7F8044600F0E4F89F
:1002B0000099001B8842F9D338BD00002DE9F84FA2
:1002C000DFF87CB100224FF001084FF0030A4FF035
:1002D0000F090BF1040E00BF0B6808FA02F423406B
:1002E000A3426ED14D68022D01D0122D0ED1D5083A
:1002F00000EB850CDCF820505607F70E09FA07F6DC
:10030000B5430E69BE402E43CCF820600668550008
:100310000F790AFA05FC07F0030726EA0C06AF403E
:10032000374307604E68012E05D0022E03D0112EF0
:1003300001D0122E0ED18668CF6826EA0C06AF4097
:10034000374387604668A6430C79C4F30014944091
:1003500034434460C6688C6826EA0C06AC403443DB
:10036000C4604C68E40065D5364C256845F480458A
:100370002560246822F0030504F480440094324C84
:100380002E19D6F8084895072F0F09FA07F5AC4340
:100390002E4DA84201D1002524E02D4DA84201D1C7
:1003A00001251FE02B4DA84201D102251AE02A4D5C
:1003B000A84201D1032515E0284DA84202D1042509
:1003C00010E037E0264DA84201D105250AE0254D71
:1003D000A84201D1062505E0234DA84201D10725F9
:1003E00000E00825BD402543C6F80858DBF800406A
:1003F0005D464E689C43F60300D51C432C60DEF836
:10040000004075464E689C43B60300D51C432C60E3
:100410000B4D08352C684E689C43F60200D51C43F2
:100420002C60074D0C352C684E689C43B60200D5F5
:100430001C432C60521C102AFFF44EAFBDE8F88F0D
:10044000003C0140443802400030014000000240BE
:100450000004024000080240000C0240001002406C
:100460000014024000180240001C02400AB18161E1
:1004700070470904FBE7000001480068704700006E
:100480008C01002002480168491C0160704700008F
:100490008C0100200B4810B5016841F40071016027
:1004A000016841F480610160016841F4807101607C
:1004B000032000F069F8002000F006F800F018F8BA
:1004C000002010BD003C024010B5044607484FF420
:1004D0007A710068B0FBF1F000F02BFB002221469E
:1004E000501E00F031F8002010BD000090010020E7
:1004F00010B5032000F048F8002211466FF00B0001
:1005000000F022F8002211466FF00A0000F01CF8FB
:10051000002211466FF0090000F016F80022114683
:10052000501F00F011F800221146101F00F00CF8C7
:1005300000221146901E00F007F80022BDE810408E
:100540001146501EAFF30080F0B40E4B1B680C46F2
:10055000C3F30223C3F10705042D00D90425191D97
:10056000072901D2002300E0DB1E012606FA05F16F
:10057000491E214099409E40761E16403143F0BCF2
:1005800000F0EEBD0CED00E0064900F0070208683F
:100590004FF6FF03184040EA0220034A1043086068
:1005A000704700000CED00E00000FA052DE9F0476F
:1005B000DFF8649105460F46D9F8000000F00F01FE
:1005C000F8B28046B94208D2014689F80010D9F83D
:1005D000000000F00F00B84274D128784F4C80071B
:1005E00005D52068A96820F0F0000843206028782D
:1005F000C00759D049496868083901281AD002282B
:100600001BD0032819D00968890700295ADA216804
:1006100021F0030101432160FFF72EFF69680646C0
:1006200041F28830012911D002291DD003298246C8
:1006300027D035E009688903E7E709688901E4E71D
:10064000FFF71AFF811B514501D926E08246206839
:10065000C0F381000128F3D126E000BFFFF70CFFB3
:10066000811B514501D918E082462068C0F3810002
:100670000228F3D118E000BFFFF7FEFE811B5145B1
:100680000BD82068C0F381000328F5D10CE000BF2F
:10069000FFF7F2FE811B514502D90320BDE8F08728
:1006A000206810F00C0FF3D1D9F80010484601F083
:1006B0000F01B94208D980F80080006800F00F00EF
:1006C000B84201D00120E9E72878400705D5206825
:1006D000E96820F4E050084320602878000706D538
:1006E0002068296920F4604040EAC100206000F0E1
:1006F00051F82168F02292FAA2F201F0F001B2FA68
:1007000082F2D140064A515CC84006490860002088
:10071000FFF7DAFE0020C1E7003C02400838024043
:10072000A41C0008900100200148006870470000E8
:100730009001002008480949006809684FF4E05218
:1007400092FAA2F201F4E051B2FA82F2D140044AE4
:10075000515CC840704700009001002008380240FA
:10076000A41C000808480949006809684FF4604261
:1007700092FAA2F201F46041B2FA82F2D140044A44
:10078000515CC840704700009001002008380240CA
:10079000A41C000830B51948006810F00C01184876
:1007A00012D0441004290ED008290DD11349091F75
:1007B0000A6802F03F030A68550247F6C07204D582
:1007C000B4FBF3F003E0204630BDB0FBF3F00B6860
:1007D0000968134092FAA2F2B2FA82F2D340584367
:1007E0004FF4403292FAA2F201F44031B2FA82F2AE
:1007F000D140491C4900B0FBF1F030BD083802403F
:100800000024F4002DE9F84F0546DFF8FC9200784B
:10081000A9F1040BC007ABF1040449D0D9F80010CA
:100820004846C1F38101012908D00068C0F3810066
:1008300002280AD1DBF80000400206D520688003B8
:1008400036D5686800286ED032E06868B0F5803F21
:1008500010D0B0F5A02F206810D020F48030206098
:10086000206820F4802020606868A0B1FFF704FEB3
:1008700006460CE0206840F48030F4E740F4802025
:100880002060F7E7FFF7F8FD801B642871D8206827
:100890008003F7D50CE0FFF7EFFD064605E000BF4B
:1008A000FFF7EAFD801B6428F0D820688003F7D4A6
:1008B0002878964F80074FF0010A4FF0000841D585
:1008C000D9F80010484611F00C0F08D00068C0F3AA
:1008D000810002280AD1DBF80000400206D420681B
:1008E000800713D5E86801281DD10FE0E868D8B16A
:1008F000C7F800A0FFF7C0FD064604E0FFF7BCFD07
:10090000801B0228C2D820688007F7D52068F8220B
:1009100092FAA2F22969B2FA82F220F0F80091402C
:10092000084320600EE0ECE0C7F80080FFF7A4FD6C
:10093000064604E0FFF7A0FD801B022819D82068B6
:100940008007F7D42878000724D57148696989B1F0
:10095000C0F800A0FFF790FD064604E0FFF78CFD0D
:10096000801B022805D868486C3000688007F5D5E0
:1009700010E07AE0C0F80080FFF77EFD064604E054
:10098000FFF77AFD801B02286FD85F486C30006843
:100990008007F5D42878400753D55B483830016884
:1009A00041F080510160006800F08050009059488B
:1009B000016841F480710160FFF75EFD064604E0C6
:1009C000FFF75AFD801B02284FD852480068C00527
:1009D000F6D54D4EA868683601280FD00528306836
:1009E00010D020F001003060306820F0040030604A
:1009F000A868B8B1FFF740FD00900FE0306840F004
:100A00000100F4E740F004003060F7E7FFF734FD41
:100A10000099411A41F2883081426AD830688007D3
:100A2000F4D50EE0FFF728FD009007E0FFF724FD66
:100A30000099411A41F2883081425AD830688007C3
:100A4000F4D4A869E8B3D9F80010C1F381010229F0
:100A500057D00228C7F8608003D0FFF70DFD054688
:100A60004AE0FFF709FD064605E042E0FFF704FD16
:100A7000801B02283DD820688001F7D4D5E9070102
:100A8000084347F6C07292FAA2F2696AB2FA82F299
:100A90009140AA6A4FF0FF3303EB52024FF4403308
:100AA00093FAA3F3B3FA83F39A40114308434FF048
:100AB000706292FAA2F2E96AB2FA82F291400843B5
:100AC00000E01CE0CBF80000C7F860A0FFF7D4FC02
:100AD000054604E0FFF7D0FC401B022809D8206837
:100AE0008001F7D50BE000BFFFF7C6FC401B0228D2
:100AF00002D90320BDE8F88F20688001F4D40020DB
:100B0000F8E70120F6E700000838024000004742FD
:100B1000800E4742007000404FF0E0210428086931
:100B200003D020F004000861704740F00400FAE7A9
:100B3000704710B5401EB0F1807F01D3012010BD79
:100B40004FF0E02460610F21601700F009FB0020E6
:100B5000A06107202061002010BD10B5FFF7E8FF5D
:100B600010BD30B590F83820012A20D0012280F83D
:100B70003820022380F8393003685C6824F0700460
:100B80005C6003685C680D682C435C6003689C686B
:100B900024F080049C6003689C6849680C439C6056
:100BA00080F83920002180F83810084630BD022036
:100BB00030BD10B5040003D094F8390010B107E03F
:100BC000012010BD002084F83800204600F00CF809
:100BD000022084F83900211D206800F035FC012036
:100BE00084F83900002010BD08B50068B0F1804FCE
:100BF00008D10548016841F001010160006800F07A
:100C00000100009008BD00004038024070B5044665
:100C100090F83800012817D0012584F838500220B8
:100C200084F839002068826822F0770222F47F423B
:100C300082600868502837D00DDC202859D005DCA8
:100C400088B3102841D151E0022070BD302853D024
:100C500040283AD13FE060282ED070280BD0B0F564
:100C6000805F03D0B0F5005F2FD110E0206881686D
:100C700021F0070115E0CB68D1E90121206800F0DF
:100C80004EFC2168886840F0770088601DE0CB68E2
:100C9000D1E90121206800F042FC2068816841F41C
:100CA0008041816011E01EE0CA684968206800F058
:100CB000FFFC5021206806E0CA684968206800F0FF
:100CC00008FD6021206800F034FC84F839500020D1
:100CD00084F8380070BDCA684968206800F0E8FCF4
:100CE00040212068EFE700212068ECE71021206810
:100CF000E9E720212068E6E730212068E3E70000EB
:100D000000B5006885B0B0F1804F0BD10120022101
:100D1000CDE9000100210291CDE9031069460248A6
:100D2000FFF7CCFA05B000BD0000024070B50446E4
:100D300090F8380001280DD0012584F838500220A1
:100D400084F8390042B1042A0AD0082A0CD00C2AAF
:100D500011D10DE0022070BD206800F0F3FB0AE025
:100D6000206800F01BFC06E0206800F049FC02E06F
:100D7000206800F075FC84F83950002084F83800B1
:100D800070BD10B5040003D094F8390010B107E02D
:100D9000012010BD002084F83800204600F00CF837
:100DA000022084F83900211D206800F04DFB01204D
:100DB00084F83900002010BD7047000010B50446CB
:100DC0000068012200F0A0FB08492068884202D098
:100DD0000749884203D1416C41F4004141642068D5
:100DE000016841F001010160002010BD00000140D8
:100DF0000004014010B504460068002200F084FBA6
:100E0000104841F2111221689310814202D00E481D
:100E1000814209D1086A104206D1086A184203D1FA
:100E2000486C20F4004048642068016A114206D1F1
:100E3000016A194203D1016821F00101016000201B
:100E400010BD0000000001400004014070B5040026
:100E500004D094F83900002510B106E0012070BDDF
:100E600084F83850204600F023F8242084F8390014
:100E70002068C16821F40051C160204600F03CFCAC
:100E80002068016921F4904101612068416921F0E5
:100E90002A0141612068C16841F40051C160E563E5
:100EA000202084F8390084F83A00002070BD00004A
:100EB00000B500680E4987B0884216D10D48016818
:100EC00041F0200101600068694600F020000590B3
:100ED000C020009002200190012002900320039086
:100EE000082004900448FFF7E9F907B000BD0000AE
:100EF0000014014044380240000802402DE9F84344
:100F0000044690F83A00994616460D4620284FD1DF
:100F100095B18EB194F83800012849D0012084F8A9
:100F200038000027E763222084F83A00FFF7A4FA8C
:100F3000A6858046E68531E00120BDE8F883E08D96
:100F4000401EE085A0684346B0F5805F4FF0000288
:100F50004FF020012046CDF8009004D000F022FD93
:100F600098B10320E9E700F01DFD0028F9D12069C0
:100F700000282068406803D0C1B225F8011B0DE0AD
:100F8000C0F3080125F8021B08E02069002820684A
:100F9000406801D000F07F0005F8010BE08D0028CB
:100FA000CDD1202084F83A0084F838700020C4E7BE
:100FB0000220C2E72DE9F843044690F839001F46A5
:100FC00016460D46202850D1A5B19EB194F83800A0
:100FD00001284AD0012084F838004FF00008C4F8F6
:100FE0003C80212084F83900FFF746FAA684814628
:100FF000E68426E00120BDE8F883E08C401EE08412
:10100000A0684B46B0F5805F4FF000024FF08001C2
:101010002046009703D000F0C5FCE8B90DE000F0D1
:10102000C1FCC8B928882168C0F30800486020695D
:1010300008B16D1C05E0AD1C03E0216815F8010B3B
:101040004860E08C0028D8D14B4600224021204641
:10105000009700F0A7FC08B10320CCE7202084F81B
:10106000390084F838800020C5E70220C3E7FEE796
:1010700070B51B4886B00024016841F08001016012
:10108000016801F080010591016841F001010160F2
:10109000016801F001010591016841F0080101605A
:1010A000016801F008010591016841F00401016047
:1010B00000680C4E00F004004FF40055059000222B
:1010C00029463046FFF7D2F901200095CDE9010409
:1010D000694630460394FFF7F1F806B070BD000092
:1010E00030380240000C024010B51B488EB04FF063
:1010F00080410024C0E900140521C0E902410461D7
:10110000FFF757FD00B1FEE74FF48050079007A9A5
:101110001148FFF77BFD00B1FEE70F48FFF731FEF6
:1011200000B1FEE70B940BA90B480C94FFF719FDD7
:1011300000B1FEE73020CDE90004029400226946A8
:1011400005480494FFF7F2FD00B1FEE70248FFF7FF
:10115000D7FD0EB010BD000094010020FEE77047DF
:101160000907090E002806DA00F00F0000F1E02060
:1011700080F8141D704700F1E02080F800147047DB
:10118000704770472DE9F0410025203888B05B2872
:101190006FD2DFE800F084BEBEBEBEBEBEBEBEBE25
:1011A000BEBEBEBEBEBEA1878A8D8F9295989B9E05
:1011B000BEBEBEBEBEBEBE2E303B3E4144474A4DC3
:1011C000505356595C5F6265686B6F7275787B7EB1
:1011D00081BEBEBEBEBEBE2E303B3E4144474A4DE0
:1011E000505356595C5F6265686B6F7275787B7E91
:1011F00081004B4901E04A493A316846FFF740F81F
:1012000004464FF40058474E6F4680E0444944314D
:10121000F3E743491231F0E741490E39EDE7404920
:101220005031EAE73E495A31E7E73D491A31E4E7F0
:101230003B490C39E1E73A496431DEE7384972311C
:10124000DBE737497C31D8E735492231D5E73449E6
:10125000891DD2E732498631CFE731499231CCE757
:101260002F499E31C9E72E492A31C6E72C490C3156
:10127000C3E74EE02A490839BFE729493231BCE7C4
:101280002749AC31B9E72649B631B6E72449C03120
:10129000B3E72349CC31B0E72149DA31ADE7204942
:1012A000091FAAE71E49E631A7E71D49F831A4E75F
:1012B0001D49A2E71C490E319FE71B491A319CE7E3
:1012C0001949243199E71849303196E716493E31DA
:1012D00093E715494E3190E7134960318DE7785D0A
:1012E00010B1FF280FD105E000211048FFF782FD63
:1012F000002204E000210D48FFF760FD0122414675
:101300003046FFF7B3F83220FEF7CCFF6D1CA54244
:10131000E5DB3220FEF7C6FF08B0BDE8F081000033
:101320000E000020000C0240160100209401002055
:1013300070B50546002403E0285DFFF723FF641C19
:101340002846FEF74FFFA042F6D870BD10B5FFF754
:1013500099F8BDE81040FFF700BC000030B5234805
:1013600093B00025016841F080510160006800F0F1
:10137000805011901E48016841F48041016000686E
:10138000022400F48040119001200090000401909C
:101390008001CDE9064008AA0420542182E8130008
:1013A0000B906846FFF72EFA00B1FEE70CA90F205C
:1013B00081E831004FF48050CDE90F0502210CA8DF
:1013C000FFF7F4F800B1FEE7FFF7AEF94FF47A71DA
:1013D000B0FBF1F0FFF7ADFB0420FFF79DFB00220F
:1013E0001146501EFFF7B0F813B030BD4038024030
:1013F000007000401048016841F4700101600F481E
:10140000016841F0010101600C4A002108321160BD
:1014100002680B4B1A400260031D0A4A1A600268F8
:1014200022F48022026005480C300160024958060F
:10143000803908607047000088ED00E00038024005
:10144000FFFFF6FE10300024F0B50268234B244D58
:10145000244E254F254C4FF0804C984209D06045D2
:1014600007D0A84205D0B04203D0B84201D0A04274
:1014700004D122F0700E4A6842EA0E0298421BD054
:10148000604519D0A84217D0B04215D0B84213D049
:10149000A04211D0164DA8420ED0164DA8420BD036
:1014A000154DA84208D0154DA84205D0144DA842AC
:1014B00002D0144DA84203D122F44075CA682A43D1
:1014C00002608A68C2620A688262984201D0A042C1
:1014D00001D10969016301214161F0BD00000140B2
:1014E0000004004000080040000C004000040140DF
:1014F0000040014000440140004801400018004005
:10150000001C00400020004010B50123046A8B40FD
:101510009C430462036A8A401343036210BD10B502
:10152000846842EA032224F47F440A43224382600F
:1015300010BD826822F070020A4342F00701816008
:101540007047000030B5026A22F001020262026AAE
:10155000436884690D6824F07304254322F0020473
:101560008A6822430B4CA04202D00B4CA0420BD104
:1015700022F00804CA6823F4407322434C6922F025
:1015800004021C438B6923434360856149684163BE
:10159000026230BD000001400004014030B5026A23
:1015A00022F010020262026A436884690D6824F422
:1015B000E64444EA05248D6822F0200242EA05123E
:1015C0000D4DA84202D00D4DA8420ED1CD6822F09B
:1015D000800242EA05124D6923F4406343EA850321
:1015E0008D6922F0400243EA8503436084614968C3
:1015F0008163026230BD0000000001400004014030
:1016000030B5026A22F480720262036A4268C469D9
:1016100023F4007324F073050C682C438D6843EAAF
:1016200005230D4DA84202D00C4DA8420ED1CD6825
:1016300023F4006343EA05234D6922F4405242EA51
:1016400005128D6923F4806342EA05124260C46189
:101650004968C163036230BD0000014000040140DD
:1016600030B5026A22F480520262046A4268C36999
:101670000D6823F4E64343EA05238D6824F40054FF
:1016800044EA0534084DA84202D0084DA84204D1CE
:101690004D6922F4804242EA85124260C361496882
:1016A0000164046230BD00000000014000040140FC
:1016B00010B5036A046A24F001040462846924F00A
:1016C000F00444EA021423F00A020A43846102622D
:1016D00010BD10B5036A23F0100303628369046A26
:1016E00023F4704343EA023224F0A00343EA0111D9
:1016F0008261016210BD00002DE9F04104460068DE
:10170000016921F44052E168114301612168C86810
:1017100049F20C6290432369A268E5691A43636940
:101720002B431A430243CA602168486920F440727F
:10173000A06910434861E1696425B1F5004F9748FD
:10174000974A21684FF032083FD0914201D0814240
:101750007CD1FFF707F800EBC00101EB00106168D6
:101760008900B0FBF1F6FEF7FDFF00EBC00101EBD5
:10177000001061688900B0FBF1F0B0FBF5F06FF08C
:101780001801484306EB800108EB0110B0FBF5F0AF
:1017900000F0F006FEF7E6FF00EBC00101EB0010E1
:1017A00061688900B0FBF1F0B0FBF5F006EB0016C4
:1017B000FEF7D8FF00EBC00101EB00106168890063
:1017C000B0FBF1F7FEF7CEFFD2E0914201D08142AB
:1017D0003DD1FEF7C7FF00EBC00101EB00106168CF
:1017E0004900B0FBF1F0B0FBF5F00601FEF7BAFFDF
:1017F00000EBC00101EB001061684900B0FBF1F79C
:10180000FEF7B0FF00EBC00101EB0010616849007A
:10181000B0FBF1F0B0FBF5F06FF01801484307EBB7
:10182000800108EBC100B0FBF5F000F0F80006EB1A
:101830004006FEF797FF00EBC00101EB0010616866
:101840004900B0FBF1F7FEF78DFF3CE055E0FEF7F5
:1018500071FF00EBC00101EB001061684900B0FBB3
:10186000F1F0B0FBF5F00601FEF764FF00EBC001FC
:1018700001EB001061684900B0FBF1F7FEF75AFF79
:1018800000EBC00101EB001061684900B0FBF1F012
:10189000B0FBF5F06FF01801484307EB800108EB4F
:1018A000C100B0FBF5F000F0F80006EB4006FEF7D3
:1018B00041FF00EBC00101EB001061684900B0FB83
:1018C000F1F7FEF737FF00EBC00101EB0010616894
:1018D0004900B0FBF1F0B0FBF5F06FF018014843A0
:1018E00007EB800108EBC100B0FBF5F000F007004A
:1018F000216830448860BDE8F081FEF71BFF00EBF3
:10190000C00101EB001061688900B0FBF1F6FEF741
:1019100011FF00EBC00101EB001061688900B0FB12
:10192000F1F0B0FBF5F06FF01801484306EB8001D1
:1019300008EB0110B0FBF5F000F0F006FEF7FAFE40
:1019400000EBC00101EB001061688900B0FBF1F011
:10195000B0FBF5F006EB0016FEF7ECFE00EBC00165
:1019600001EB001061688900B0FBF1F7FEF7E2FEC1
:1019700000EBC00101EB001061688900B0FBF1F0E1
:10198000B0FBF5F06FF01801484307EB800108EB5E
:101990000110B0FBF5F000F00F00A9E700140140C2
:1019A000001001402DE9F041984617460E460446C6
:1019B000069D1DE0681C1BD02DB1FEF75DFDA0EB60
:1019C0000800A84214D92068C16821F4D071C16010
:1019D0002068416921F001014161202084F839002B
:1019E00084F83A00002084F838000320BDE8F08134
:1019F0002068006836EA000004D00020B842D9D040
:101A00000020F3E70120F9E7FEE700000FB4084BE0
:101A100010B504A902AA039800F01BF8044602A915
:101A2000002000F081F8204610BC5DF814FB000097
:101A3000291B000802E008C8121F08C1002AFAD1B9
:101A400070477047002001E001C1121F002AFBD13E
:101A500070472DE9F84F994692468846054600277B
:101A600006E025280AD051464A4690476D1C7F1C47
:101A700028780028F5D13846BDE8F88F002315F8FE
:101A8000011F18462E2915D115F8011F04232A29F4
:101A90000DD06FF02F022978A1F13004092C09D85C
:101AA00000EB800002EB400008446D1CF3E758F89F
:101AB000040B6D1C2A78002ADDD0632A07D0732A14
:101AC0000FD0104651464A4690477F1C2AE018F82E
:101AD000042B8DF8002000218DF801106E460121A5
:101AE00003E058F8046B4FF0FF315A074FF0000441
:101AF00001D409E0641C84420BDA8C42FADB325DCB
:101B0000002AF7D105E0641C8C42FCDB305D002824
:101B1000F9D1274404E016F8010B51464A46904794
:101B2000641EF8D26D1CA3E70A68531C0B6010708A
:101B30007047000008B5FF214C48FEF748FBFEF750
:101B4000A9FCFFF70BFCFFF793FAFFF7CDFA474824
:101B500047494038002401604FF4E131C0E90114E5
:101B60000C21C460C0E904418461C461FFF76EF9CF
:101B700000B1FEE7FF213D48FEF729FB3B4800216D
:101B80007C38FFF737F939483AA33DA23F49FF3087
:101B9000FFF73CFF3548FF30FEF724FB334982B2A4
:101BA000FF316423A1F23F10FFF704FA2F488DF8AC
:101BB0000040002536A1FF30FFF728FF2B48FF30FB
:101BC000FEF710FB294982B2FF316423A1F23F10D6
:101BD000FFF7F0F9FF212548FEF7F9FA234E14E04C
:101BE000224801231A4669464038FFF787F9002842
:101BF000F6D11E486423012269464038FFF7DAF91E
:101C00009DF8000070556D1CEDB29DF800000D2888
:101C1000E6D116481FA1FF30FEF7EBFA1348FF305C
:101C2000FEF7E0FA114982B2FF316423A1F23F10BE
:101C3000FFF7C0F90D48FFF77BFB0C4817A1FF30F9
:101C4000FEF7D7FA0948FF30FEF7CCFA074982B20F
:101C5000FF316423A1F23F10FFF7ACF98DF800408B
:101C6000FF210248FEF7B3FAA0E7000010020020AF
:101C70000014014031333A34383A34360000000061
:101C8000417072202039203230313700B41C0008F6
:101C90002D3E20000D0A54582E2E2E004F4B210DA4
:101CA0000A00000000000000010203040102030416
:101CB000060708095232414956204357205465729D
:101CC0006D696E616C20312E3020286329204465B7
:101CD0006E697320532E20536F766B6F760D0A4218
:101CE00075696C743A202573202573207777772ED9
:101CF000766B2E636F6D2F72326169760D0A5541D6
:101D00005254362031313532303020384E310D0AC0
:101D1000456E74657220737472696E6720746F20EB
:101D200073656E64210D0A00481D00080000002044
:101D30009401000028020008A81D0008940100205A
:101D40007C120000441A000814FFAAFF190434FF93
:101D5000FFAA290C190A1904291411591A4908292A
:101D60000669102924290669186934A932A91E892F
:101D7000384914690C89388952A92C8916C94469D3
:101D80001AC93AA986A95A890E89CC8962894CE96F
:101D900010E90EC90C896CC99AC9C0091010C9CACA
:081DA0009974711324F4000092
:040000050800018965
:00000001FF
